:020000040800F2
:100000002004002099010008F9010008F901000806
:10001000F9010008F9010008F901000800000000DA
:10002000000000000000000000000000F9010008CE
:10003000F901000800000000F9010008F9010008BA
:10004000F9010008F9010008F9010008F9010008A8
:10005000F9010008F9010008F9010008F901000898
:10006000F9010008F9010008F9010008F901000888
:10007000F9010008F9010008F9010008F901000878
:10008000F9010008F9010008F9010008000000006A
:10009000000000000000000000000000F90100085E
:1000A000F9010008F9010008F9010008F901000848
:1000B000F9010008F9010008F9010008F901000838
:1000C000F9010008F9010008F9010008F901000828
:1000D000F901000881060008F9010008F90100088B
:1000E000F9010008F9010008F9010008000000000A
:1000F0000000000000000000000000000000000000
:1001000000000000000000000000000000000000EF
:100110000000000000000000C5060008F90100080A
:100120005FF808F180B485B000AF78600B467B8043
:100130000023FB730023BB8100237B817B681B8A28
:100140009AB27B881340BB817B689B899AB27B887B
:1001500013407B81BB89002B05D07B89002B02D00B
:100160000123FB7301E00023FB73FB7B184614376C
:10017000BD4680BC704700BF80B483B000AF7860DC
:100180000B467B807B88DB439AB27B681A8200BF78
:100190000C37BD4680BC704780B582B000AF114BB4
:1001A0007B60114B3B6007E03B681A1D3A607A6840
:1001B000111D796012681A603B680C4A9342F3D3B0
:1001C0000B480C494FF000028842B8BF40F8042B9E
:1001D000FADB00F015F800F0ADFA00BF0837BD46B5
:1001E00080BD00BFC40C00080000002018000020E3
:1001F000180000201C00002080B400AFFEE700BF04
:1002000080B500AF174A174B1B6843F0010313601A
:100210001449144B5A68144B13404B60114A114B4C
:100220001B6823F0847323F4803313600D4A0D4B55
:100230001B6823F4802313600A4A0A4B5B6823F48B
:10024000FE035360074B4FF41F029A60054B0022D8
:10025000DA6200F00DF8054B4FF000629A6000BFC3
:1002600080BD00BF001002400000FFF800ED00E07C
:1002700080B500AF00F002F800BF80BD80B483B04D
:1002800000AF00237B6000233B60304A2F4B1B688C
:1002900043F4803313602D4B1B6803F400333B6041
:1002A0007B6801337B603B68002B03D17B68B3F52F
:1002B000A06FF0D1254B1B6803F40033002B02D054
:1002C00001233B6001E000233B603B68012B37D1F9
:1002D0001E4A1E4B5B6853601C4A1C4B5B68536094
:1002E0001A4A1A4B5B685360184A184B5B6823F430
:1002F0007C135360154A154B5B6843F498135360A5
:10030000124A124B1B6843F08073136000BF0F4BFF
:100310001B6803F00073002BF9D00C4A0B4B5B6891
:1003200023F003035360094A084B5B6843F0020360
:10033000536000BF054B5B6803F00C03082BF9D139
:1003400000BF0C37BD4680BC704700BF00100240A4
:1003500080B483B000AF0346FB71084997F90730BA
:100360005B09FA7902F01F02012000FA02F241F85B
:10037000232000BF0C37BD4680BC704700E100E081
:1003800080B483B000AF03463960FB7197F9073042
:10039000002B0BDA0D49FB7903F00F03043B3A689D
:1003A000D2B21201D2B20B441A7609E0084997F989
:1003B00007303A68D2B21201D2B20B4483F800235C
:1003C00000BF0C37BD4680BC704700BF00ED00E0A9
:1003D00000E100E080B586B000AF07F114031846D5
:1003E00000F00EF90121042000F072FA4FF480634E
:1003F000BB821823FB7507F114031946204800F04F
:1004000043F84FF40073BB821823FB750323BB75BD
:1004100007F1140319461A4800F036F83B1D184638
:1004200000F02EFB01214FF4804000F051FA4FF410
:10043000E1337B6000233B820C23FB810023BB81E3
:1004400000237B8100233B813B1D19460D4800F0B2
:100450005DFA01210B4800F02FFB62B6012240F249
:100460002551084800F048FB07212520FFF788FFA9
:100470002520FFF76DFF00BF1837BD4680BD00BFC8
:10048000000801400038014080B489B000AF7860B6
:1004900039600023FB6100233B610023BB61002323
:1004A000FB6000237B610023BB603B68DB7803F0CB
:1004B0000F03FB613B68DB7803F01003002B05D0D2
:1004C0003B689B781A46FB691343FB613B681B88BA
:1004D000DBB2002B44D07B681B687B610023BB61CF
:1004E00038E00122BB6902FA03F3FB603B681B881A
:1004F0001A46FB6813403B613A69FB689A4226D171
:10050000BB699B00FB600F22FB6802FA03F3BB6030
:10051000BB68DB437A6913407B61FA69FB6802FAC6
:1005200003F37A6913437B613B68DB78282B05D1A1
:100530000122BB699A407B685A6108E03B68DB781E
:10054000482B04D10122BB699A407B681A61BB69C0
:100550000133BB61BB69072BC3D97B687A691A6019
:100560003B681B88FF2B46D97B685B687B61002357
:10057000BB613AE0BB690833012202FA03F3FB6076
:100580003B681B881A46FB6813403B613A69FB686D
:100590009A4227D1BB699B00FB600F22FB6802FADD
:1005A00003F3BB60BB68DB437A6913407B61FA6984
:1005B000FB6802FA03F37A6913437B613B68DB78DB
:1005C000282B05D1BB69083301229A407B685A6108
:1005D0003B68DB78482B05D1BB69083301229A4080
:1005E0007B681A61BB690133BB61BB69072BC1D949
:1005F0007B687A695A6000BF2437BD4680BC70476B
:1006000080B483B000AF78607B684FF6FF721A80C9
:100610007B6802229A707B680422DA7000BF0C3774
:10062000BD4680BC704700BF80B483B000AF786027
:100630000B467B8013467B707B78002B03D07A8837
:100640007B681A6102E07A887B685A6100BF0C37C8
:10065000BD4680BC704700BF80B485B000AF7860F5
:100660000023FB6002E0FB680133FB60FA687B68F3
:100670009A42F8D300BF1437BD4680BC704700BF14
:1006800080B582B000AF40F225510D4800F09EFACF
:100690000346002B0FD040F22551094800F0F0FA34
:1006A000074800F083FA0346FB71FB799BB21946B9
:1006B000034800F069FA00BF0837BD4680BD00BF9F
:1006C0000038014080B500AF01211748FFF72AFD2F
:1006D0000346012B26D1154B1B78DB43DAB2134BB3
:1006E0001A70124B1B78002B0CD001224FF4807132
:1006F0000F48FFF799FF01224FF400710C48FFF7F4
:1007000093FF0BE000224FF480710948FFF78CFF44
:1007100000224FF400710648FFF786FF01210248CE
:10072000FFF72AFD00BF80BD001000401800002028
:100730000010014080B582B000AF00F0BDFA002388
:10074000FB71094800F032FA0346DAB2074B1A701F
:10075000064B1B789BB21946034800F015FA044873
:10076000FFF77AFFEDE700BF0038014000000020EE
:10077000FFFF0F0080B489B000AF78600023FB61F9
:100780000023BB6100237B6100233B610023FB60EE
:100790004A4B5B6803F00C03FB61FB69042B07D039
:1007A000082B09D0002B2FD17B68454A1A602FE017
:1007B0007B68434A1A602BE0404B5B6803F470137C
:1007C000BB613E4B5B6803F480337B61BB699B0C70
:1007D0000233BB617B69002B06D1BB69394A02FB3E
:1007E00003F27B681A6013E0344BDB6A03F00F03FB
:1007F0000133FB60324AFB68B2FBF3F3BA6902FBD8
:1008000003F27B681A6003E07B682D4A1A6000BF20
:100810002A4B5B6803F0F003FB61FB691B09FB617A
:10082000294AFB6913441B78DBB23B617B681A6879
:100830003B69DA407B685A60204B5B6803F4E063F5
:10084000FB61FB691B0AFB611F4AFB6913441B78B0
:10085000DBB23B617B685A683B69DA407B689A602F
:10086000164B5B6803F46053FB61FB69DB0AFB61B9
:10087000154AFB6913441B78DBB23B617B685A68FD
:100880003B69DA407B68DA600C4B5B6803F44043F9
:10089000FB61FB699B0BFB610C4AFB6913441B78F2
:1008A000DBB23B617B68DA683B69B2FBF3F27B68E1
:1008B0001A6100BF2437BD4680BC7047001002405B
:1008C00000127A0000093D000400002014000020FE
:1008D00080B483B000AF78600B46FB70FB78002BD0
:1008E00006D00949084B9A697B6813438B6106E07F
:1008F0000549054B9A697B68DB4313408B6100BF58
:100900000C37BD4680BC70470010024080B58CB0EB
:1009100000AF786039600023FB620023BB620023D4
:100920007B6200233B620023FB617B68FB617B6889
:100930001B8A9BB2FB62FA6A4CF6FF731340FB62A0
:100940003B68DB881A46FB6A1343FB62FB6A9AB278
:100950007B681A827B689B899BB2FB62FA6A4EF6BF
:10096000F3131340FB623B689A883B681B8913436F
:100970009AB23B685B8913439BB21A46FB6A1343E6
:10098000FB62FB6A9AB27B689A817B689B8A9BB206
:10099000FB62FA6A4FF6FF431340FB623B689B8998
:1009A0001A46FB6A1343FB62FB6A9AB27B689A821F
:1009B00007F108031846FFF7DDFEFB692E4A934254
:1009C00002D17B69BB6201E03B69BB627B689B89AA
:1009D0009BB21BB2002B0CDABA6A13469B0013447D
:1009E0009A001A443B681B685B00B2FBF3F37B621E
:1009F0000BE0BA6A13469B0013449A001A443B6802
:100A00001B689B00B2FBF3F37B627B6A1B4AA2FB71
:100A100003235B091B01FB62FB6A1B09642202FBC7
:100A200003F37A6AD31A3B627B689B899BB21BB241
:100A3000002B0CDA3B6ADB003233104AA2FB0323A3
:100A40005B0903F00703FA6A1343FB620BE03B6A9E
:100A50001B013233094AA2FB03235B0903F00F0396
:100A6000FA6A1343FB62FB6A9AB27B681A8100BF81
:100A70003037BD4680BD00BF003801401F85EB51B7
:100A800080B483B000AF78607B684FF416521A6070
:100A90007B6800229A807B680022DA807B680022D3
:100AA0001A817B680C225A817B6800229A8100BFE0
:100AB0000C37BD4680BC704780B483B000AF78600F
:100AC0000B46FB70FB78002B08D07B689B899BB2A0
:100AD00043F400539AB27B689A8107E07B689B8954
:100AE0009BB223F400539AB27B689A8100BF0C3703
:100AF000BD4680BC704700BF80B487B000AF78604F
:100B00000B467B8013467B7000233B610023FB6018
:100B10000023BB6000237B617B687B617B88DBB249
:100B20005B09DBB23B617B8803F01F03FB600122A2
:100B3000FB6802FA03F3BB603B69012B03D17B69BD
:100B40000C337B6109E03B69022B03D17B691033D5
:100B50007B6102E07B6914337B617B78002B06D0DC
:100B60007B697A691168BA680A431A6006E07B6992
:100B70007A691168BA68D2430A401A6000BF1C370C
:100B8000BD4680BC704700BF80B483B000AF7860C2
:100B90000B467B807B88C3F308039AB27B689A80FC
:100BA00000BF0C37BD4680BC704700BF80B483B027
:100BB00000AF78607B689B889BB2C3F308039BB24D
:100BC00018460C37BD4680BC704700BF80B487B064
:100BD00000AF78600B467B800023FB6000237B61C5
:100BE0000023BB600023FB747B88DBB25B09DBB2B4
:100BF000BB607B8803F01F037B6101227B6902FAE3
:100C000003F37B61BB68012B07D17B689B899BB297
:100C10001A467B6913407B6111E0BB68022B07D148
:100C20007B681B8A9BB21A467B6913407B6106E096
:100C30007B689B8A9BB21A467B6913407B617B88E9
:100C40001B0A9BB2FB600122FB6802FA03F3FB6004
:100C50007B681B889BB21A46FB681340FB607B696C
:100C6000002B05D0FB68002B02D00123FB7401E0B0
:100C70000023FB74FB7C18461C37BD4680BC7047C4
:100C800080B485B000AF78600B467B800023FB8189
:100C90000023BB817B881B0AFB81FB89012202FAAE
:100CA00003F3BB81BB89DB439AB27B681A8000BF28
:100CB0001437BD4680BC704780B500AFFFF78AFB94
:040CC00000BF80BD34
:100CC4008800000000000000010203040102030484
:080CD4000607080902040608E6
:0400000508000000EF
:00000001FF
